:0A02B6003F065B4F666D7D077F6F0A
:0F029800011F00012000010900010800010A00F8
:1002510012000E1202A8E4F5807590FF43B080E50C
:10026100096008120144E4F509F520E50A60F0127D
:070271000194E4F50A80E8A6
:10000E00759850758920758DFD758BFDD28ED2AC8D
:03001E00D2AF223C
:0E02A800438901758CEC758A78D2A9D28C221C
:1001DC007590FFEDC3940A5009ED9002B693F5802B
:1001EC00800BBD0A057580638003E4F580EF24FE67
:1001FC00600E14600F1460102403700F5390FE22D5
:0C020C005390FD225390FB225390F722E8
:10014400E4FFEFC395205047740B2FF8E6FE64508C
:10015400702AEF2401FDE433FCC3ED95207480F88C
:100164006C985018740C2FF8E6F51FD39464400370
:10017400751F647599503099FDC29922EEB4530CE1
:0F018400750A017599533099FDC299220F80B306
:010193002249
:10027800E4FDFCC3ED9FEC9E5015E4FBFA0BBB00BC
:0F028800010AEB64784A70F50DBD00010C80E4AB
:010297002244
:10019400E4F521F52290000063B0807F017E001217
:1001A4000278A3E58264C8458370EDE4F583F582A3
:1001B40063B0807F027E00120278A3E58264C845A2
:1001C4008370ED0522E52270020521C39403E52125
:0701D400940040C143B0801C
:0101DB002201
:03002300020218BE
:10021800C0E0C0D075D000C000309821C298740BDF
:100228002520F8A699740B2520F8E6640A6007E5EE
:1002380020C39413400575090180020520309902F6
:09024800C299D000D0D0D0E03200
:03000B00020026CA
:10002600C0E0C0F0C083C082C0D075D000C005C09B
:0300360006C007FA
:10003900758CEC758A780508E508D3940440037536
:100049000801E51F75F06484FFE51F75F06484E518
:10005900F075F00A84FEE51F75F00A84ADF0E50835
:1000690024FE601614602C14602D24037030EFD325
:1000790094004017AD077F018021EFD3940050050C
:10008900EE94004006AD067F0280107590FF7580E2
:0E00990000800B7F0380047D0A7F041201DCCF
:1000A700D007D006D005D0D0D082D083D0F0D0E012
:0100B7003216
:030000000200B843
:0C00B800787FE4F6D8FD7581220200FF7D
:1000C400020251E493A3F8E493A34003F68001F2FF
:1000D40008DFF48029E493A3F85407240CC8C3333D
:1000E400C4540F4420C8834004F456800146F6DF0C
:1000F400E4800B0102040810204080900298E47E02
:10010400019360BCA3FF543F30E509541FFEE49300
:10011400A360010ECF54C025E060A840B8E493A3C7
:10012400FAE493A3F8E493A3C8C582C8CAC583CAF2
:10013400F0A3C8C582C8CAC583CADFE9DEE780BEAA
:0102A7000056
:00000001FF
